:100000000C9447000C9471000C9471000C947100D6
:100010000C9471000C9471000C9471000C9471009C
:100020000C94D3040C9471000C9471000C94710026
:100030000C9471000C9471000C9471000C9471007C
:100040000C9471000C9471000C94AE040C9471002B
:100050000C9415040C9463040C9471000C947100BE
:100060000C9471000C9471000C9471000C9471004C
:100070000C9471000C9471000C9471000C9471003C
:100080000C9471000C9471000C9471004B061124B7
:100090001FBECFEFD0E4DEBFCDBF12E0A0E0B1E0E5
:1000A000E2E2FDE000E00BBF02C007900D92A43138
:1000B000B107D9F723E0A4E1B2E001C01D92A43C4E
:1000C000B207E1F710E0C7E4D0E004C02197FE01D9
:1000D0000E946906C634D107C9F70E94E2050C9454
:1000E0008F060C94000095B182B1089582B18F5FA4
:1000F00082B9811103C085B18F5F85B908955D987C
:1001000085E08A95F1F700005E9895E09A95F1F701
:10011000000086B15E9A95E09A95F1F700005D9A2D
:1001200095E09A95F1F70000089588B98FEF87B9A7
:100130005D9895E09A95F1F700005C9895E09A95A6
:10014000F1F700005C9A95E09A95F1F700005D9A4E
:1001500095E09A95F1F7000017B888B9089512B89C
:1001600015B80E94730097FD0DC00E947F008F3F5D
:1001700059F40E947600A895809160008064809375
:100180006000EFCF81E0089580E008951F93CF9342
:10019000DF93C5E5C2B9C5B98AEA0E9495001AEA9B
:1001A00012B9DAE2D5B985E50E949500C2B9C5B9A0
:1001B00080E80E9495008AEA0E94950012B9D5B99C
:1001C00085E50E949500C2B9C5B980E10E949500FD
:1001D0008CEDEFE8F1E03197F1F700C000008150BD
:1001E000C1F70E94AF00811137C012B815B80E9444
:1001F000730097FD2CC00E947F008F3FF9F00E9492
:100200007F008F3FD9F08FEF0E949500A8958091D5
:1002100060008064809360008FE193E00197F1F7C4
:1002200000C00000C1EADFE0219741F087E992E0D9
:100230000E943D058111F8CF0E947F000E94760048
:10024000A89580916000806480936000D0CFDF919A
:10025000CF911F910C94AF0081E0DF91CF911F915E
:100260000895CF93C5E5C2B9C5B98AEA0E94950041
:100270008AEA82B98AE285B985E50E949500C2B909
:10028000C5B980EA0E9495008FE193E00197F1F7EC
:1002900000C0000087E992E00E943D058111FACF7D
:1002A000CF9108951F93CF93DF93C5E5C2B9C5B928
:1002B0008AEA0E9495001AEA12B9DAE2D5B985E510
:1002C0000E949500C2B9C5B980E80E949500C2B9E4
:1002D000C5B98AEA0E94950012B9D5B985E50E9490
:1002E0009500C2B9C5B980E20E9495008FE193E004
:1002F0000197F1F700C0000087E992E00E943D05F8
:100300008111FACFDF91CF911F910895EF92FF9263
:100310000F931F93CF93DF938B0182B995B901158A
:10032000110509F444C00E947300D82FC92F60E062
:1003300071E088E992E00E9429056C2F88E992E03B
:100340000E9404056D2F88E992E00E940405D05FA9
:10035000CD0F60E088E992E00E940405780180E119
:10036000E81AF1080E947F00682FC80F88E992E020
:100370000E9404050E947600015011090E151F0508
:1003800019F00115110571F76C2F619588E992E05C
:100390000E94040562E771E088E992E00E94290565
:1003A000A89580916000806480936000B8CFDF9151
:1003B000CF911F910F91FF90EF90089564E071E04D
:1003C00088E992E00E9429056AEF88E992E00E949C
:1003D000040562E771E088E992E00E94290560E087
:1003E00070E890E080E00E94860162E171E088E9B7
:1003F00092E00C942905982F80ED890F8A3048F0FF
:10040000892F8F7D9FEB980F963010F487530895B6
:1004100080E008950F931F93CF93DF938C01D0E07A
:10042000C0E0D801ED91FC9190819923B9F080ED65
:10043000890F8A3020F09F7D9154963078F484E0C3
:10044000CC0FDD1F8A95E1F7CF010196D8018D937E
:100450009C9380810E94FB01C82BE3CFCE01DF91EA
:10046000CF911F910F910895EF92FF920F931F93D9
:10047000CF937C01FC0100811181F801C081CC2364
:10048000B9F08C2F0E94FB01C82FC295C07FC80114
:100490000196F70191838083F8018181882341F0DF
:1004A0000E94FB01C82B0E5F1F4FF70111830083D1
:1004B0008C2FCF911F910F91FF90EF9008951F9374
:1004C000CF93DF9300D0CDB7DEB786E192E09A8379
:1004D000898310E0E981FA818081882331F0CE019F
:1004E00001960E943402180FF5CF81E0111180E0CF
:1004F0000F900F90DF91CF911F910895EF92FF928F
:100500000F931F93CF93DF9300D000D0CDB7DEB70A
:1005100086E192E09C838B830E945F02882309F42A
:1005200060C0CE0103960E943402F82ECE010396DD
:100530000E94340219828A83CE0103960E943402FB
:1005400029813A81282B3A832983CE0103960E9480
:1005500034028130D9F18430C9F160E371E0811156
:1005600031C099818A8192B985B9EF2C05E112E0F9
:10057000EA948FEFE81641F0CE0103960E94340210
:10058000F80181938F01F4CF9E012F5F3F4F4F2DD4
:1005900065E172E087E992E00E945605811116C07C
:1005A00060E271E088E992E00E9429056A8188E9A9
:1005B00092E00E940405698188E992E00E940405A6
:1005C00062E771E088E992E00E9429050F900F90A0
:1005D0000F900F90DF91CF911F910F91FF90EF90AF
:1005E00008956AE471E0EECFCF92DF92EF92FF922E
:1005F0000F931F93CF93C09114020C2F10E0F801BA
:10060000EB5EFD4F8081882339F090E00E947206F6
:1006100021E02C0F892BC9F4C8018B5E9D4F6C0122
:100620000C2F10E00B5E1D4FF801E080EE2079F0FA
:10063000F12CC7010E947206CF5F892B99F4C70184
:100640000E947B06F8018083EBCFC22FD6CFC093E8
:100650001402C601CF911F910F91FF90EF90DF9090
:10066000CF900895C0931402F8011082F2CF0F9337
:100670001F93CF93DF9300D0CDB7DEB780911502E3
:100680008A3379F40E947E026BE072E088E992E09E
:100690000E9429050F900F90DF91CF911F910F912C
:1006A0000895109214020E94F4028C019A838983A7
:1006B000FC018081882341F369E571E0C8010E9453
:1006C0008306892BC1F50E94F402FC019A83898379
:1006D0008081882369F1CE0101960E940A028C0173
:1006E0000E94F402FC019A838983808160E070E8B3
:1006F000601B710B882329F0CE0101960E940A022B
:10070000BC0117FD0EC06115710559F080E090E83D
:10071000801B910B8617970720F0C8010E94860165
:10072000B3CF6EE571E088E992E00E942905ACCF75
:100730000E94DE01A9CF65E771E0C8010E9483062F
:10074000892B39F06AE771E0C8010E948306892B82
:1007500019F46CE771E0E7CF68ED71E0C8010E9421
:100760008306892B39F40E94C6006EED71E0811179
:100770008BCFD9CF6FEE71E0C8010E948306892B21
:1007800019F40E94310180CF6DEE71E0C8010E9422
:100790008306892B19F40E94520176CF64EF71E031
:1007A000C8010E948306892B39F40E94AF006FEFC5
:1007B00071E0811169CFB7CF6AE771E0B4CF682FDC
:1007C0008A3011F08D3099F462E771E088E992E0A7
:1007D0000E942905E0911402F0E0EB5EFD4F1082CB
:1007E0000E94370310921402109215020895E091AE
:1007F0001402883059F4EE23B9F0E150E09314026A
:100800006FE072E088E992E00C942905EF3760F41C
:1008100081E08E0F80931402F0E0EB5EFD4F608369
:1008200088E992E00C94D40408951F921FB61F9299
:1008300011242F932BB72F934F935F938F939F93F5
:10084000EF93FF932091C60080919C0390919D03AC
:100850008F3F910509F008F58091980390919903D5
:10086000AC014F5F5F4F50939903409398038856B4
:100870009D4FFC01208380919803909199039927C3
:10088000909399038093980380919C0390919D038A
:10089000019690939D0380939C0380919C0390917B
:1008A0009D038138910510F05F9B5F9AFF91EF9156
:1008B0009F918F915F914F912F912BBF2F911F90FF
:1008C0001FBE1F9018952F932FB72F932BB72F93E1
:1008D0003F938F939F93EF93FF938091C2039091E7
:1008E000C30320E0892B11F18091C0039091C103D3
:1008F0009C012F5F3F4F3093C1032093C00382566A
:100900009C4FFC0120818091C2039091C303019709
:100910009093C3038093C2038091C0039091C1035D
:100920008F7199279093C1038093C0032093C600D1
:100930008091C2039091C303892B29F48091C10057
:100940008F7D8093C100FF91EF919F918F913F9197
:100950002F912BBF2F912FBF2F9118951F921FB64C
:100960001F9211248F939F9316BC80919C039091AA
:100970009D038034910510F45F995F9880919502F2
:1009800090919602009749F080919502909196027D
:10099000019790939602809395029F918F911F905B
:1009A0001FBE1F9018951895FC01EA5FFE4F84A1A9
:1009B00095A1809739F4A895809160008064809318
:1009C0006000F5CFF89484A195A18097B0F480A140
:1009D00091A19C012F5F3F4F31A320A38E0F9F1F3A
:1009E000DC016C9380A191A18F71992791A380A3C1
:1009F00084A195A1019695A384A38091C1008062F2
:100A00008093C100789408951F93CF93DF93182F9C
:100A1000D92FC62F862F90E024E0959587952A95AB
:100A2000E1F760E3680F6A3310F067E3680F812F26
:100A30009D2F0E94D404CF7060E36C0F6A3310F0D6
:100A400067E36C0F812F9D2FDF91CF911F910C9445
:100A5000D4040F931F93CF93DF938C01EB01209766
:100A600039F06991662321F0C8010E94D404F7CFC0
:100A7000DF91CF911F910F9108955D985E9885E069
:100A80008A95F1F7000086B15E9A5D9A95E09A9595
:100A9000F1F700005D985E9895E09A95F1F70000F7
:100AA00096B15E9A5D9A8927807408955F926F92DD
:100AB0007F928F929F92AF92BF92CF92DF92EF92EE
:100AC000FF920F931F93CF93DF93982EA92EF62EAC
:100AD000E72EC42F69010E947300B82ED92F7C2EF7
:100AE0005F2C6E2C812C7A942FEF721671F00E947D
:100AF0007F00052D162DF80191918F0189138394A4
:100B00000E947600502E612EEECF882009F458C046
:100B1000B2B8D5B98C2EC7018A94FFEF8F1661F059
:100B2000092F182FF80181918F010E9495000E94D2
:100B30007600902F812FF0CFA8958091600080647F
:100B4000809360008FE193E00197F1F700C000000F
:100B5000B2B8D5B901EA1FE00150110991F4D0E013
:100B60008D2FDF91CF911F910F91FF90EF90DF902C
:100B7000CF90BF90AF909F908F907F906F905F903D
:100B80000895892D9A2D0E943D05D82F8111E4CF1B
:100B90000F2D1E2DCF0DC01799F00E947F00F80178
:100BA00091918F01891749F0C114D104C1F20E94BB
:100BB0007300F60191838083D3CF0E947600EBCF40
:100BC000D1E0CECF14BE15BE12B815B88FEF88B9DC
:100BD00093EF9BB981B984B917B88EEF8AB983B7FF
:100BE000817F83BF83B7816083BF8091600088610C
:100BF0008093600088EE8093600084E085BD16BC21
:100C000081E080936E001092C50089E18093C4005A
:100C10001092C00088E98093C1005F98789488950D
:100C2000A8958091600080648093600080919C030F
:100C300090919D03892B99F3F89480919C03909156
:100C40009D03892B31F180919A0390919B039C0124
:100C50002F5F3F4F30939B0320939A0388569D4FFD
:100C6000FC01808120919C0330919D03215031092A
:100C700030939D0320939C0320919A0330919B0312
:100C8000332730939B0320939A0378940E94DF03C9
:100C9000C6CF80E0FACF1092990310929803109279
:100CA0009B0310929A0310929D0310929C03109242
:100CB000BF031092BE031092C1031092C0031092A2
:100CC000C3031092C2035C9A5E9A5D9A12B815B87B
:100CD0000895EE0FFF1F0024001C0BBE0790F69135
:100CE000E02D099491110C948C06803219F08950F2
:100CF0008550C8F708959111089581548A5108F4D8
:100D0000805E855A0895FB01DC018D910190801968
:100D10000110D9F3990B0895992788270895F8941D
:020D2000FFCF03
:100D22003A3130003A3032303030303034303030D6
:100D320030003A303030303030303146460D0A0023
:100D42007772697465206572726F72206174200017
:100D5200756E737570706F72746564207265636FFF
:100D6200726420747970650D0A00626164206368A0
:100D720065636B73756D0D0A007265616400496E7F
:100D820076616C696420706172616D657465722848
:100D920073290D0A0068656C70003F00436F6D6D2A
:100DA200616E64733A0D0A626C616E6B63686563AF
:100DB2006B0D0A72656164205B616472206C656E02
:100DC2005D0D0A68656C700D0A65726173650D0AC6
:100DD2006C6F636B0D0A756E6C6F636B0D0A7365D6
:100DE2006E6420696E74656C2068657820746F206B
:100DF20077726974650D0A006572617365004572E8
:100E0200617365206661696C65640D0A00756E6CBC
:100E12006F636B00626C616E6B636865636B004E3F
:100E22006F7420626C616E6B0D0A000D0A3E000841
:040E32002008000094
:00000001FF
